:100000000C942A000C94D0010C941B060C9447000D
:100010000C9491060C9456060C9447000C944700DF
:100020000C9447000C9447000C94E4060C942107B0
:100030000C9447000C9447000C9447000C94470024
:100040000C9447000C9447000C9447000C94470014
:100050000C94470011241FBECFE5D8E0DEBFCDBF12
:1000600010E0A0E6B0E0E8E0F3E102C005900D92F8
:10007000AA39B107D9F720E0AAE9B0E001C01D9282
:10008000A83CB207E1F70E948E030C9482090C94FD
:100090000000843008F087C0683008F086C0423025
:1000A00008F085C0813031F138F0823009F440C069
:1000B000833009F45BC07DC0442379F0413009F0FE
:1000C0007AC02AB381E090E002C0880F991F6A9538
:1000D000E2F7822B8ABB81E008952AB381E090E0A9
:1000E00002C0880F991F6A95E2F7809582238ABB28
:1000F00081E00895442379F0413009F05EC027B3D0
:1001000081E090E002C0880F991F6A95E2F7822B88
:1001100087BB81E0089527B381E090E002C0880F9B
:10012000991F6A95E2F78095822387BB81E0089545
:10013000442379F0413009F042C024B381E090E0DB
:1001400002C0880F991F6A95E2F7822B84BB81E079
:10015000089524B381E090E002C0880F991F6A954A
:10016000E2F78095822384BB81E00895442371F0F7
:10017000413039F521B381E090E002C0880F991F2A
:100180006A95E2F7822B81BB81E0089521B381E07B
:1001900090E002C0880F991F6A95E2F7809582234C
:1001A00081BB81E0089580E0089580E0089580E0BB
:1001B000089581E0089580E0089580E0089580E04A
:1001C000089580E00895843008F07CC0683008F01D
:1001D00079C0423008F076C0813019F130F08230B9
:1001E000E1F1833009F454C06DC0442371F0413013
:1001F00009F068C02BB381E090E002C0880F991F1E
:100200006A95E2F7822B8BBB5DC02BB381E090E057
:1002100002C0880F991F6A95E2F7809582238BBBF5
:1002200051C0442371F0413009F04CC028B381E043
:1002300090E002C0880F991F6A95E2F7822B88BB75
:1002400041C028B381E090E002C0880F991F6A95F1
:10025000E2F78095822388BB35C0442369F04130A2
:1002600089F525B381E090E002C0880F991F6A9557
:10027000E2F7822B85BB26C025B381E090E002C067
:10028000880F991F6A95E2F78095822385BB1AC073
:10029000442369F04130B1F422B381E090E002C020
:1002A000880F991F6A95E2F7822B82BB0BC022B39D
:1002B00081E090E002C0880F991F6A95E2F780956F
:1002C000822382BB81E00895813061F120F0823089
:1002D00009F44FC00895613069F028F0623089F068
:1002E0006330B1F01BC085B7816085BF85B7826080
:1002F00085BF14C085B78E7F85BF85B7826085BFF7
:100300000DC085B78E7F85BF85B78D7F85BF06C041
:1003100085B7816085BF85B78D7F85BF8BB78064CA
:100320008BBF0895613069F028F0623089F0633046
:10033000B1F01BC085B7846085BF85B7886085BF75
:1003400014C085B78B7F85BF85B7886085BF0DC01A
:1003500085B78B7F85BF85B7877F85BF06C085B78B
:10036000846085BF85B7877F85BF8BB780688BBF6B
:100370000895662319F0613029F007C084B78064BE
:1003800084BF03C084B78F7B84BF8BB780628BBF71
:100390000895009721F090939B0080939A00089510
:1003A0001F920F920FB60F9211242F933F934F93EA
:1003B0005F936F937F938F939F93AF93BF93EF93CD
:1003C000FF93E0919A00F0919B00309709F0099516
:1003D000FF91EF91BF91AF919F918F917F916F911D
:1003E0005F914F913F912F910F900FBE0F901F90F3
:1003F00018958FB780688FBF0895CF93C82F80FF5F
:1004000006C041E064E080E00E94E30005C040E0F7
:1004100064E080E00E94E300C1FF06C041E065E0C7
:1004200080E00E94E30005C040E065E080E00E94BB
:10043000E300C2FF06C041E066E080E00E94E30006
:1004400005C040E066E080E00E94E300C3FF06C014
:1004500041E067E080E00E94E30005C040E067E023
:1004600080E00E94E300CF910895CF93C82F40E031
:1004700061E081E00E94E30040E062E081E00E94F0
:10048000E3008C2F82958F700E94FD0141E063E0B4
:1004900081E00E94E3008FE39FE10197F1F700C044
:1004A000000040E063E081E00E94E3008C2F0E94A6
:1004B000FD0141E063E081E00E94E3008FE39FE102
:1004C0000197F1F700C0000040E063E081E00E9486
:1004D000E300CF91089541E061E081E00E9449008E
:1004E00041E062E081E00E94490041E063E081E098
:1004F0000E94490041E064E080E00E94490041E040
:1005000065E080E00E94490041E066E080E00E94F2
:10051000490041E067E080E00E9449008FE39CE9E8
:100520000197F1F700C0000040E061E081E00E9427
:10053000E30040E062E081E00E94E30082E00E948C
:10054000FD0141E063E081E00E94E3008FE39FE171
:100550000197F1F700C0000040E063E081E00E94F5
:10056000E30088E20E9435029FEF23EF81E0915083
:1005700020408040E1F700C000008FE00E9435027B
:1005800095ED9A95F1F7000081E00E9435028FED1C
:100590009EE20197F1F700C0000086E00E9435025C
:1005A0000895CF93C82F41E061E081E00E94E3000D
:1005B00040E062E081E00E94E3008C2F82958F7022
:1005C0000E94FD0141E063E081E00E94E3008FE3CF
:1005D0009FE10197F1F700C0000040E063E081E097
:1005E0000E94E3008C2F0E94FD0141E063E081E066
:1005F0000E94E3008FE39FE10197F1F700C0000044
:1006000040E063E081E00E94E300CF9108950F9302
:100610001F93CF938C01C0E003C00E94D102CF5F33
:10062000F801EC0FF11D80818111F7CFCF911F915F
:100630000F91089581E00E9435028FE39FE10197B9
:10064000F1F700C000000895CF92DF92EF92FF9281
:100650001F93CF93DF93CDB7DEB760970FB6F894B3
:10066000DEBF0FBECDBF6B017C01FE01319680E184
:10067000DF011D928A95E9F7FF2064F48DE20E9464
:10068000D102F094E094D094C094C11CD11CE11C20
:10069000F11C08C0C114D104E104F10419F480E391
:1006A0000E94D10210E014C0C701B6012AE030E078
:1006B00040E050E00E946309E1E0F0E0EC0FFD1F34
:1006C000E10FF11D6083C22ED32EE42EF52E1F5FA5
:1006D000C114D104E104F10439F7FF24FA94F10EB6
:1006E0000DC0E1E0F0E0EC0FFD1FEF0DF11DF7FC98
:1006F000FA958081805D0E94D102FA94FF208CF7E8
:1007000060960FB6F894DEBF0FBECDBFDF91CF91DC
:100710001F91FF90EF90DF90CF900895CF93DF93DC
:10072000CDB7DEB72C970FB6F894DEBF0FBECDBFA6
:1007300019821A821B821C821D821E821F821886C9
:1007400019861A861B861C860E94F9010E94A3073F
:100750000E946B020E94CE060E94DA0681E00E948F
:10076000A40482E00E94A4040E9477050E94A405CC
:100770000E949D0519821A821B821C821D821E8284
:100780001F82188619861A861B861C86CE01019642
:100790000E94C1070E941A0381E690E00E940703AD
:1007A00069817A818B819C810E94E7070E942403E2
:1007B0008BE690E00E9407032FEF84E694E021503F
:1007C00080409040E1F700C000000E941A03698158
:1007D0007A818B819C8120E030E040E252E40E94EB
:1007E000CF0818161CF40E943705C4CF69817A819E
:1007F0008B819C8120E030E040E252E40E94E207DD
:1008000018160CF4B7CF0E94300569817A818B816C
:100810009C8120E030E040E252E40E94E20788231D
:100820006CF40E946E052FEF80E792E0215080402B
:100830009040E1F700C000000E9430050E9496053C
:10084000CE0101960E94C10789819A81AB81BC814A
:1008500089879A87AB87BC878FE690E00E94070361
:1008600069857A858B859C850E94E7070E94240311
:100870008BE690E00E9407032FEF84E694E021507E
:1008800080409040E1F700C000000E941A030E94DF
:100890009D050E948F05CE0101960E94C1078981A6
:1008A0009A81AB81BC818D839E83AF83B8870E9480
:1008B0001A0388E790E00E9407036D817E818F8193
:1008C00098850E94E7070E9424038BE690E00E942F
:1008D00007032FEF84E694E0215080409040E1F739
:1008E00000C000000E941A030E949D0569857A8558
:1008F0008B859C852D813E814F8158850E94CF0834
:10090000181654F40E941A0381E890E00E9407032D
:100910000E9457050E941A036D817E818F81988500
:1009200029853A854B855C850E94CF0818160CF006
:1009300021CF0E941A038DE890E00E9407030E94D5
:1009400040050E941A0316CFCF93C82F41E060E004
:1009500082E00E94490041E060E082E00E9449009C
:1009600041E063E082E00E94490041E064E082E00F
:100970000E94490041E065E082E00E94490041E0B8
:1009800066E082E00E9449000E943F060E944C06F9
:10099000C13019F0C23039F00BC041E060E082E0B4
:1009A0000E94E30005C041E060E082E00E94E300B5
:1009B000CF910895813019F08230E1F008956130CF
:1009C00019F0623061F0089541E063E082E00E9436
:1009D000E30040E064E082E00E94E300089541E02B
:1009E00064E082E00E94E30040E063E082E00E9475
:1009F000E3000895613019F0623061F0089541E03C
:100A000065E082E00E94E30040E066E082E00E9450
:100A1000E300089541E066E082E00E94E30040E0E8
:100A200065E082E00E94E3000895813019F0823091
:100A300061F0089540E063E082E00E94E30040E05E
:100A400064E082E00E94E300089540E065E082E017
:100A50000E94E30040E066E082E00E94E300089527
:100A600081E00E94150582E00E941505089561E06D
:100A700081E00E94DA0461E082E00E94DA040895D5
:100A800061E081E00E94DA0482E00E9415052FEF08
:100A900083ED90E3215080409040E1F700C00000DA
:100AA00081E00E94150582E00E941505089561E02D
:100AB00082E00E94DA0481E00E9415052FEF83EDA9
:100AC00090E3215080409040E1F700C0000081E0B9
:100AD0000E94150582E00E941505089562E081E0FC
:100AE0000E94DA0462E082E00E94DA0408958FB581
:100AF000826A8FBD8EB58B618EBD87E893E197BD0D
:100B000086BD81B3806281BB08952FEF8CEB9FE19E
:100B1000215080409040E1F700C0000008958AE530
:100B200090E09BBD8ABD0E94850508958BE391E00E
:100B30009BBD8ABD0E94850508958AEB90E09BBD10
:100B40008ABD0E948505089581B3877F81BB82B3EA
:100B5000886082BB85B7886085BF85B78B7F85BF7E
:100B60008BB780688BBF8FB780688FBF089580EC8C
:100B700090E00E94C1076091C0007091C100809117
:100B8000C2009091C30020E030E040E252E40E94B5
:100B9000E20788230CF04EC00E948F0588EB90E09E
:100BA0000E94C1070E941A0388E790E00E94070391
:100BB0006091B8007091B9008091BA009091BB002B
:100BC0000E94E7070E9424038BE690E00E9407033F
:100BD0002FEF80E792E0215080409040E1F700C085
:100BE00000000E941A030E949D050E9496058CEB4E
:100BF00090E00E94C1078FE690E00E940703609199
:100C0000BC007091BD008091BE009091BF000E9419
:100C1000E7070E9424038BE690E00E9407038FE31E
:100C20009CE90197F1F700C000000E949D058AB77A
:100C300080688ABF08951F920F920FB60F921124F9
:100C40002F933F934F935F936F937F938F939F93D4
:100C5000AF93BF93EF93FF930E94B705FF91EF917E
:100C6000BF91AF919F918F917F916F915F914F91C4
:100C70003F912F910F900FBE0F901F90189585B543
:100C8000806485BD85B5886085BD85B58F7E85BD51
:100C900085B5806285BD089585B58E7F85BD85B596
:100CA0008D7F85BD85B5846085BD08951F920F92A7
:100CB0000FB60F9211242F933F934F935F936F932F
:100CC0007F938F939F93AF93BF93EF93FF93809105
:100CD0009E0090919F00019690939F0080939E00AC
:100CE000813D934069F481E784BD10929F0010928A
:100CF0009E00E091A400F091A500309709F00995BD
:100D0000FF91EF91BF91AF919F918F917F916F91E3
:100D10005F914F913F912F910F900FBE0F901F90B9
:100D200018951F920F920FB60F9211242F933F9395
:100D30004F935F936F937F938F939F93AF93BF93E3
:100D4000EF93FF9380919C0090919D00019690936A
:100D50009D0080939C002091A0003091A1008217FB
:100D6000930759F410929D0010929C00E091A2000C
:100D7000F091A300309709F00995FF91EF91BF9191
:100D8000AF919F918F917F916F915F914F913F9123
:100D90002F910F900FBE0F901F90189583B78F7BE8
:100DA00083BF83B7877F83BF81E782BF89B78160B5
:100DB00089BF089583B7816083BF83B7826083BF93
:100DC00083B78B7F83BF08951F920F920FB60F9248
:100DD00011242F933F934F935F936F937F938F9340
:100DE0009F93AF93BF93EF93FF938091A600909151
:100DF000A70001969093A7008093A6002091AA00D7
:100E00003091AB008217930759F41092A70010920B
:100E1000A600E091AC00F091AD00309709F0099583
:100E2000FF91EF91BF91AF919F918F917F916F91C2
:100E30005F914F913F912F910F900FBE0F901F9098
:100E400018951F920F920FB60F9211248F939F93B4
:100E50008091A8009091A90001969093A900809399
:100E6000A8009F918F910F900FBE0F901F90189523
:100E700080916000833008F065C08091600081300F
:100E800099F482B790E09093B3008093B200809180
:100E9000A8009091A9009093C7008093C60061E0DC
:100EA00080E00E94640149C080916000823009F0B6
:100EB00044C082B790E09093B1008093B0008091DD
:100EC000A8009091A9009093C5008093C4008091E0
:100ED000C4009091C500982F88272091B0003091D0
:100EE000B100820F931F2091C6003091C700322FAE
:100EF00022274091B2005091B300240F351F821B6E
:100F0000930B9093AF008093AE006091AE00709110
:100F1000AF0080E090E00E941D0826E933E44BE832
:100F20005DE30E94D4086093B4007093B500809391
:100F3000B6009093B70010926000809160008F5FC0
:100F400080936000089540E062E083E00E944900E1
:100F500041E060E083E00E94490088E397E00E945E
:100F6000C901089541E060E083E00E94E30085E369
:100F70008A95F1F7000040E060E083E00E94E30022
:100F80000895CF93DF93EC010E94B20760E080E008
:100F90000E9464012FEF80E792E021508040904052
:100FA000E1F700C000008091B4009091B500A091DD
:100FB000B600B091B70088839983AA83BB83DF9181
:100FC000CF9108950E945A0808F481E008950E9484
:100FD000EE076894B1110C94C90808950E94AE08F8
:100FE00088F09F5798F0B92F9927B751B0F0E1F0EA
:100FF000660F771F881F991F1AF0BA95C9F714C09A
:10100000B13091F00E94C808B1E008950C94C8086E
:10101000672F782F8827B85F39F0B93FCCF38695D2
:1010200077956795B395D9F73EF49095809570952F
:1010300061957F4F8F4F9F4F0895E89409C097FBAC
:101040003EF490958095709561957F4F8F4F9F4F9F
:101050009923A9F0F92F96E9BB279395F6958795E3
:1010600077956795B795F111F8CFFAF4BB0F11F4A6
:1010700060FF1BC06F5F7F4F8F4F9F4F16C088234D
:1010800011F096E911C0772321F09EE8872F762F83
:1010900005C0662371F096E8862F70E060E02AF0C4
:1010A0009A95660F771F881FDAF7880F96958795B0
:1010B00097F90895990F0008550FAA0BE0E8FEEF85
:1010C00016161706E807F907C0F012161306E4070C
:1010D000F50798F0621B730B840B950B39F40A2605
:1010E00061F0232B242B252B21F408950A2609F4E3
:1010F000A140A6958FEF811D811D089597F99F67E7
:1011000080E870E060E008959FEF80EC089500248F
:101110000A941616170618060906089500240A945C
:1011200012161306140605060895092E0394000CE2
:1011300011F4882352F0BB0F40F4BF2B11F460FF71
:1011400004C06F5F7F4F8F4F9F4F089557FD90589A
:10115000440F551F59F05F3F71F04795880F97FB7B
:10116000991F61F09F3F79F0879508951216130635
:101170001406551FF2CF4695F1DF08C01616170664
:101180001806991FF1CF8695710561050894089599
:10119000E894BB2766277727CB0197F908950E942B
:1011A0005A0808F48FEF08950E94E7080C949508F8
:1011B0000E94870838F00E948E0820F0952311F0D5
:1011C0000C947E080C94840811240C94C9080E9485
:1011D000A60870F3959FC1F3950F50E0551F629FCD
:1011E000F001729FBB27F00DB11D639FAA27F00D80
:1011F000B11DAA1F649F6627B00DA11D661F829FA7
:101200002227B00DA11D621F739FB00DA11D621F8B
:10121000839FA00D611D221F749F3327A00D611DA8
:10122000231F849F600D211D822F762F6A2F11248A
:101230009F5750409AF0F1F088234AF0EE0FFF1FBD
:10124000BB1F661F771F881F91505040A9F79E3F14
:10125000510580F00C947E080C94C9085F3FE4F3BC
:10126000983ED4F3869577956795B795F795E7956A
:101270009F5FC1F7FE2B880F911D9695879597F973
:101280000895A1E21A2EAA1BBB1BFD010DC0AA1FC7
:10129000BB1FEE1FFF1FA217B307E407F50720F0DF
:1012A000A21BB30BE40BF50B661F771F881F991F5A
:1012B0001A9469F760957095809590959B01AC01A3
:1012C000BD01CF010895052E97FB1EF400940E94E6
:1012D0007A0957FD07D00E94410907FC03D04EF45C
:1012E0000C947A0950954095309521953F4F4F4F7A
:1012F0005F4F089590958095709561957F4F8F4FC2
:081300009F4F0895F894FFCF00
:101308000164697374616E63653A0020636D004C13
:101318002D646973742E3A00522D646973742E3AE1
:10132800004D6F76696E67204C656674004D6F7668
:0A133800696E67205269676874004F
:00000001FF
