:100000000C942A000C948B000C9434000C94340053
:100010000C9434000C9434000C9434000C94340090
:100020000C9434000C9434000C9434000C94340080
:100030000C9434000C9434000C9434000C94340070
:100040000C9434000C9434000C9434000C94340060
:100050000C94340011241FBECFE5D8E0DEBFCDBF25
:100060000E9436000C94AF000C9400000E943B00EC
:100070000E947200FFCF8FB5826A8FBD8EB58B61F3
:100080008EBD8FE697E197BD86BD81B3806281BB4F
:1000900008952FEF81EF9BE2215080409040E1F7DF
:1000A00000C0000008958BE391E09BBD8ABD0E94D3
:1000B000490087ED90E09BBD8ABD0E9449008AE51A
:1000C00090E09BBD8ABD0E944900089587ED90E0B5
:1000D0009BBD8ABD0E94490008950E9453000E9462
:1000E0006600089581B38B7F81BB82B3846082BB3D
:1000F00085B7826085BF85B7816085BF8BB7806417
:100100008BBF8FB780688FBF08950E946D008AB73C
:1001100080648ABF08951F920F920FB60F92112428
:100120002F933F934F935F936F937F938F939F93FF
:10013000AF93BF93EF93FF930E948500FF91EF91E0
:10014000BF91AF919F918F917F916F915F914F91EF
:100150003F912F910F900FBE0F901F901895F8941C
:02016000FFCFCF
:00000001FF
